:02000000802E50
:02000B00804A29
:10003000759000758921758DFD759850D28E90024E
:10004000001170900237758CFF758A60D2A9D2AF0B
:10005000D28C20983D80FB758CFFB2002000247468
:10006000FFC2D79530F58A75900032E599C2982283
:1000700075E000C0E0937012D0E022F5993099FD50
:10008000C2992285308A7590FF32117BD0E005E05D
:1000900080E1116B540FF5F07409C2D795F040B2AE
:0700A000E5F093F53080ABA1
:10020000456E74657220612076616C7565203020C2
:100210007468726F756768203920666F72204C456C
:1002200044206272696768746E65737320636F6ED1
:1002300074726F6C3A200060708090A0B0C0D0E003
:01024000F0CD
:00000001FF
