:02000000802E50
:10003000758920759850758DFDD28E7822900200BA
:1000400075E000115A90020211CA116E117B11A7BE
:1000500011B4116E119111A701DE782175E000082D
:10006000C0E093F6D0E005E0B600F47600227930E7
:100070003098FD11BDF709B40DF62278227930E6EB
:10008000FEE703DEFDF708B60002782209B700EFAD
:100090002278227930E6FEE723DEFDF708B600027B
:1000A000782209B700EF227930E711C209B700F9C9
:1000B000E711C2223098FD11BDB40DF822E599C2B6
:1000C0009822F5993099FDC2992275E000C0E0931D
:1000D000B40003D0E02211C2D0E005E080EF74004C
:0400E00011C280FECB
:100200003400426567696E207468652063617074AC
:1002100075726520616E642073656E642074686514
:1002200020706C61696E2E7478742066696C650D3F
:100230000A53746F702074686520636170747572FE
:1002400065206F6E636520746865206369706865FA
:1002500072207465787420697320646973706C61AE
:070260007965642E0D0A0010
:00000001FF
